:020000040800F2
:10000000002000207D060008C1020008C30200088D
:1000100000000000000000000000000000000000E0
:10002000000000000000000000000000C502000801
:100030000000000000000000C7020008C90200081C
:10004000CD060008CD060008CD060008CD06000844
:10005000CD060008CD060008CD060008CD06000834
:10006000CD060008CD060008CD060008CD06000824
:10007000CD060008CD060008CD060008CD06000814
:10008000CD060008CD06000800000000CD060008DF
:10009000CD060008CD060008CD060008CD060008F4
:1000A000CD060008CD060008CD060008CD060008E4
:1000B000CD06000800000000CD060008000000008A
:1000C000002934D00123002210B488422CD301240B
:1000D0002407A14204D2814202D209011B01F8E7A0
:1000E000E400A14204D2814202D249005B00F8E759
:1000F000884201D3401A1A434C08A04202D3001B85
:100100005C0822438C08A04202D3001B9C082243B7
:10011000CC08A04202D3001BDC082243002803D0F5
:100120001B0901D00909E3E7101C10BC704701B599
:10013000002000F00BF802BD0029F8D003B5FFF74E
:10014000C1FF0EBC4243891A1847C0467047C046DB
:1001500010B5064C2378002B07D1054B002B02D09D
:10016000044800E000BF0123237010BD10000020F0
:100170000000000018070008044B10B5002B03D046
:100180000349044800E000BF10BDC0460000000065
:10019000140000201807000810B50B4B1C88013410
:1001A000A4B21C800A21FFF78BFF80B2844200D8E2
:1001B00010BD002000F0C4F8012000F0C1F8024B8F
:1001C00000221A80F4E7C0463000002010B500205D
:1001D00000F0AAF8012000F0A7F810BD044B1B683E
:1001E000002B03D0024A1368013B13607047C046DE
:1001F0002C00002000B583B00190019A53019B1A96
:100200009B009B181A01054B1A60044B1B68002BBE
:1002100002D0FFF7E3FFF8E703B000BD2C00002099
:1002200010B5002000F052F8012000F04FF8002136
:10023000002000F093F8FFF7C9FF002000F068F8F5
:1002400017E0FA204000FFF7A7FF002000F0C4F8F5
:10025000194B197801224A4001231340984205D1D5
:10026000092921D0144A1378013313700520FFF7B0
:10027000C1FF114B1B78092B12D89B000F4AD35892
:100280009F46C820FFF788FFDFE76420FFF784FF61
:10029000DBE71420FFF780FFD7E7FFF797FFD4E7EE
:1002A000054B00221A70D0E7002000F03DF8012035
:1002B00000F02EF8D6E7C046000000203007000806
:1002C0007047FEE7704770477047000030B583B055
:1002D000040085000B4BE858012100F09FF96400F1
:1002E000094BE35A009301236A461371002393716B
:1002F000D37103335371054BE858694600F01AF97E
:1003000003B030BD5807000860070008080000204F
:100310008200034BD3584000024A825A9A617047C8
:1003200008000020600700088200034BD3584000FB
:10033000024A825A1A8570470800002060070008A8
:100340008200044BD258938A40000349415A4B40E3
:1003500093827047080000206007000830B587B01E
:1003600004000D0080200121800200F057F90121D6
:10037000012000F061F900236A461375D37501333B
:100380000493A200134BD05804A900F0D3F8012D18
:1003900001D007B030BD0021002000F05BF901233F
:1003A000029302AB00221A71002C0FD008325A714E
:1003B00002A80124847100F081F801A805230370CC
:1003C000023B4370847000F0FFF8E2E702AB0C22BE
:1003D0005A71EDE70400002010B58000024BC058B0
:1003E000012100F0E9F810BD0400002082B00023D4
:1003F00001930093154B11221A60154B5A685A60ED
:100400005A685A605A6813490A405A605968A022CB
:1004100092030A435A601968802252040A431A6000
:100420000B4B1B689B01FBD5094B5A6803218A4380
:100430005A605A6801390A435A60054B5A680C23BE
:100440001340082BF9D102B07047C046002002408B
:1004500000100240FFFFC0FF10B5124B1A680121C7
:100460000A431A605A68104802405A601A680F48D6
:1004700002401A601A680E4802401A605A680D4815
:1004800002405A60DA6A0F208243DA621A6B0A4825
:1004900002401A635A6B8A435A6300229A60FFF73C
:1004A000A5FF10BD001002400CB8FFF8FFFFF6FEDC
:1004B000FFFFFBFFFFFFC0FFACFEFFFF10B583791E
:1004C000002B2CD01A4B1A6801688A431A605A68AC
:1004D00001688A435A6002799C4662441168046844
:1004E000214311609A6801688A439A60DA6801685A
:1004F0008A43DA604379102B07D00D4A944663444F
:100500001A6801680A431A6011E063469A68016834
:100510000A439A60DA6801680A43DA6007E00379FF
:10052000034A944663441A6801688A431A6010BDFE
:100530000004014070B500232FE082685D000324B1
:10054000AC40A243826082684C79AC402243826016
:1005500082881D042D0C0124AC40A2438280868831
:100560008C79AC40A2B23243828004685D000322E1
:100570001600AE40B443046004680E79AE403443C4
:100580000460C4681E04F60BB2409443C460C268A1
:10059000CC79AC402243C26001330F2B0BD801222F
:1005A0009A400C681440A242F6D10A79013AD2B2BC
:1005B000012ADAD8C1E770BD038A0B4201D00120BD
:1005C00070470020FCE7000070B58378002B19D03D
:1005D00003789A08104CC032920015590321194033
:1005E000C900FF231E008E40B5434678B601334054
:1005F0008B402B43135103781F221A400123934051
:10060000236070BD03781F221A40012393400249E2
:1006100080228B50F5E7C04600E100E0002904D0BD
:10062000044A5369184350617047024A536983432F
:100630005361F9E700100240002904D0044A93698D
:10064000184390617047024A936983439361F9E7C5
:100650000010024030B503230B409B000F259D4046
:100660008908054A023189008C58AC438C508C585B
:10067000984004438C5030BD000001400D48854631
:100680000D480E490E4A002302E0D458C4500433EA
:10069000C4188C42F9D30B4A0B4C002301E01360C1
:1006A0000432A242FBD3FFF7D7FE00F011F8FFF7A8
:1006B000B7FDFEE700200020000000201000002011
:1006C0006C0700081000002034000020FEE7000046
:1006D00070B500260C4D0D4C641BA410A64209D128
:1006E000002600F019F80A4D0A4C641BA410A6421B
:1006F00005D170BDB300EB5898470136EEE7B30063
:10070000EB5898470136F2E76407000864070008D1
:100710006407000868070008F8B5C046F8BC08BCC4
:100720009E467047F8B5C046F8BC08BC9E46704768
:100730004202000842020008820200088202000809
:100740008A0200088A020008920200089202000849
:100750009A0200089A020008000008000000080041
:040760000002000192
:04076400790100080F
:040768005101000833
:10076C00080000000000004800080048000800488D
:040000050800067D6C
:00000001FF
