:020000040800F2
:1000000000200020B1090008CD030008CF0300083C
:1000100000000000000000000000000000000000E0
:10002000000000000000000000000000D1030008F4
:100030000000000000000000D3030008D503000802
:10004000010A0008010A0008010A0008010A000864
:10005000010A0008010A0008010A0008010A000854
:10006000010A0008010A0008010A0008010A000844
:10007000010A0008010A0008010A0008010A000834
:10008000DD030008010A000800000000010A000862
:10009000010A0008010A0008010A0008010A000814
:1000A000010A0008010A0008010A0008010A000804
:1000B000010A000800000000010A0008000000001A
:1000C000002934D00123002210B488422CD301240B
:1000D0002407A14204D2814202D209011B01F8E7A0
:1000E000E400A14204D2814202D249005B00F8E759
:1000F000884201D3401A1A434C08A04202D3001B85
:100100005C0822438C08A04202D3001B9C082243B7
:10011000CC08A04202D3001BDC082243002803D0F5
:100120001B0901D00909E3E7101C10BC704701B599
:10013000002000F00BF802BD0029F8D003B5FFF74E
:10014000C1FF0EBC4243891A1847C0467047C046DB
:1001500010B5064C2378002B07D1054B002B02D09D
:10016000044800E000BF0123237010BD10000020F0
:10017000000000004C0A0008044B10B5002B03D00F
:100180000349044800E000BF10BDC0460000000065
:10019000140000204C0A000810B584B00121022090
:1001A00000F0F6FA104B1B880193104B6A4613803F
:1001B0000023138153800E4C6946200000F0A2FBFF
:1001C00001220821200000F0E5FB03A810230370A2
:1001D000002343700123837000F094FA0121200072
:1001E00000F0CCFB04B010BD2C00002080BBFFFF52
:1001F00000040040044B1B68002B03D0024A136824
:10020000013B13607047C0463000002082B001906F
:10021000019A044B1A60034B1B68002BFBD102B000
:100220007047C04630000020014B18807047C04620
:100230002C00002010B50400094B1870831EDBB29F
:10024000012B04D9043CE4B2012C04D910BD0548AB
:10025000FFF7EAFFF6E70448FFF7E6FFF6E7C046D8
:1002600034000020B80B00008813000070B582B085
:10027000002601AB1E80002000F03CF9012000F0B8
:1002800039F90021002000F06FF9474B1868FA2176
:100290008900FFF715FF03021B0A013B434A536025
:1002A0004348036A1B021B0AC02109060B43036271
:1002B0009660072313600020FFF7BCFF002529E0AC
:1002C000FF23034001A9CA5C0132CA542DE000207B
:1002D00000F03EF9012000F03BF9364800F096FAB4
:1002E000002D13D10120FFF7A5FF0FE0002D0DD049
:1002F0000420FFF79FFFFFF74FFF07E0002D28D0F6
:10030000002000F019F9012000F022F90120FFF788
:100310007DFF2600002000F065F9C4B2A642CFD0D0
:10032000FF23034001AA0021D154FF23184001AB51
:100330001B5C0A2B04D901AB00221A705A702500ED
:100340001D4B1B78DBB2052BE0D89B001B4AD35812
:100350009F460320FFF76EFFD2E7002D06D1002055
:1003600000F0EAF8012000F0F3F8CFE70020FFF7F3
:1003700061FFF4E7002D06D0002000F0E9F801202D
:1003800000F0DAF8C2E70520FFF754FFF4E7002D8C
:1003900006D1002000F0DCF8012000F0CDF8B5E730
:1003A0000020FFF747FFF4E70000002010E000E026
:1003B00000ED00E00004004034000020640A000862
:1003C000014B1878C0B27047340000207047FEE738
:1003D0007047704710B5FFF70DFF10BD10B508212D
:1003E0000F4800F0E1FAFFF7EBFF022803D0FFF718
:1003F000E7FF032808D10420FFF71CFF084800F09E
:1004000005FAFFF7C9FE10BDFFF7DAFF042803D095
:10041000FFF7D6FF0528F1D10220FFF70BFFEDE72C
:100420000004004082B0002301930093154B112279
:100430001A60154B5A685A605A685A605A681349CC
:100440000A405A605968A02292030A435A60196808
:10045000802252040A431A600B4B1B689B01FBD598
:10046000094B5A6803218A435A605A6801390A4382
:100470005A60054B5A680C231340082BF9D102B07F
:100480007047C0460020024000100240FFFFC0FF3E
:1004900010B5124B1A6801210A431A605A681048B5
:1004A00002405A601A680F4802401A601A680E48E3
:1004B00002401A605A680D4802405A60DA6A0F20FA
:1004C0008243DA621A6B0A4802401A635A6B8A4303
:1004D0005A6300229A60FFF7A5FF10BD001002408A
:1004E0000CB8FFF8FFFFF6FEFFFFFBFFFFFFC0FFAA
:1004F000ACFEFFFF30B583B0040085000B4BE8581D
:10050000012100F029F96400094BE35A009301230B
:100510006A46137100239371D37103335371054BF2
:10052000E858694600F0A4F803B030BD7C0A000822
:10053000840A0008080000208200034BD3584000C2
:10054000024A825A9A61704708000020840A000813
:100550008200034BD3584000024A825A1A857047E2
:1005600008000020840A000830B587B004000D00A0
:1005700080200121800200F0EFF80121012000F02D
:10058000F9F800236A461375D37501330493A2006A
:10059000134BD05804A900F06BF8012D01D007B01F
:1005A00030BD0021002000F01DF90123029302ABB1
:1005B00000221A71002C0FD008325A7102A80124AF
:1005C000847100F019F801A805230370023B437001
:1005D000847000F097F8E2E702AB0C225A71EDE765
:1005E0000400002010B58000024BC058012100F02B
:1005F00081F810BD0400002010B58379002B2CD0A9
:100600001A4B1A6801688A431A605A6801688A435B
:100610005A6002799C466244116804682143116063
:100620009A6801688A439A60DA6801688A43DA60E6
:100630004379102B07D00D4A944663441A68016829
:100640000A431A6011E063469A6801680A439A6097
:10065000DA6801680A43DA6007E00379034A9446DE
:1006600063441A6801688A431A6010BD000401409F
:1006700070B500232FE082685D000324AC40A243E4
:10068000826082684C79AC402243826082881D047B
:100690002D0C0124AC40A243828086888C79AC402A
:1006A000A2B23243828004685D0003221600AE408D
:1006B000B443046004680E79AE4034430460C468F7
:1006C0001E04F60BB2409443C460C268CC79AC40BF
:1006D0002243C26001330F2B0BD801229A400C68D1
:1006E0001440A242F6D10A79013AD2B2012ADAD8EC
:1006F000C1E770BD038A0B4201D001207047002082
:10070000FCE7000070B58378002B19D003789A08B5
:10071000104CC0329200155903211940C900FF2323
:100720001E008E40B5434678B60133408B402B43C4
:10073000135103781F221A4001239340236070BD98
:1007400003781F221A4001239340024980228B50D4
:10075000F5E7C04600E100E0002904D0044A5369EF
:10076000184350617047024A536983435361F9E764
:1007700000100240002904D0044A93691843906194
:100780007047024A936983439361F9E7001002407E
:10079000002904D0044AD3691843D0617047024A43
:1007A000D3698343D361F9E700100240002904D0E4
:1007B000044AD3681843D0607047024AD368834321
:1007C000D360F9E700100240002904D0044A1369FD
:1007D000184310617047024A136983431361F9E7B4
:1007E0000010024030B503230B409B000F259D40B5
:1007F0008908054A023189008C58AC438C508C58CA
:10080000984004438C5030BD0000014010B5364B79
:10081000984216D08023DB0598421DD0334B984276
:1008200023D0334B984229D0324B98422FD0324BB1
:10083000984237D0314B98423FD0314B984247D005
:1008400010BD8024240101212000FFF7AFFF00210B
:100850002000FFF7ABFFF3E701210120FFF7B4FF12
:1008600000210120FFF7B0FFEAE701210220FFF796
:10087000ABFF00210220FFF7A7FFE1E701211020D5
:10088000FFF7A2FF00211020FFF79EFFD8E780248A
:10089000640001212000FFF797FF00212000FFF7EF
:1008A00093FFCDE78024640201212000FFF77EFF43
:1008B00000212000FFF77AFFC2E78024A402012173
:1008C0002000FFF773FF00212000FFF76FFFB7E75D
:1008D0008024E40201212000FFF768FF00212000AE
:1008E000FFF764FFACE7C046002C01400004004065
:1008F0000010004000200040004001400044014042
:100900000048014003889BB2154A904206D08022DD
:10091000D205904202D0134A904203D170229343F1
:100920004A881343104A904204D0104A13400A895F
:1009300013439BB203804B68C3620B880385084B4B
:10094000984208D00A4B984205D00A4B984202D0F0
:10095000094B984201D18B7A038601238382704729
:10096000002C01400004004000100040FFFCFFFF8D
:10097000004001400044014000480140002904D0EB
:1009800003880122134303807047038801229343A5
:100990000380F9E7002A03D08389194381817047D6
:1009A00083898B438381FAE7C94389B20182704707
:1009B0000D4885460D480E490E4A002302E0D458E2
:1009C000C4500433C4188C42F9D30B4A0B4C002397
:1009D00001E013600432A242FBD3FFF759FD00F09F
:1009E00011F8FFF743FCFEE7002000200000002084
:1009F00010000020900A000810000020380000209D
:100A0000FEE7000070B500260C4D0D4C641BA410D1
:100A1000A64209D1002600F019F80A4D0A4C641BC1
:100A2000A410A64205D170BDB300EB58984701361B
:100A3000EEE7B300EB5898470136F2E7880A000862
:100A4000880A0008880A00088C0A0008F8B5C04621
:100A5000F8BC08BC9E467047F8B5C046F8BC08BC58
:040A60009E467047F7
:100A6400CE020008EC020008FC0200085A03000849
:100A7400740300088E03000800000800000008004A
:040A8400000200016B
:040A880079010008E8
:040A8C00510100080C
:100A9000006CDC0200000048000800480008004824
:04000005080009B135
:00000001FF
